{
  "_format": "hh-sol-artifact-1",
  "contractName": "GenerateNFT",
  "sourceName": "contracts/NftPortal.sol",
  "abi": [
    {
      "inputs": [],
      "stateMutability": "nonpayable",
      "type": "constructor"
    },
    {
      "anonymous": false,
      "inputs": [
        {
          "indexed": true,
          "internalType": "address",
          "name": "owner",
          "type": "address"
        },
        {
          "indexed": true,
          "internalType": "address",
          "name": "approved",
          "type": "address"
        },
        {
          "indexed": true,
          "internalType": "uint256",
          "name": "tokenId",
          "type": "uint256"
        }
      ],
      "name": "Approval",
      "type": "event"
    },
    {
      "anonymous": false,
      "inputs": [
        {
          "indexed": true,
          "internalType": "address",
          "name": "owner",
          "type": "address"
        },
        {
          "indexed": true,
          "internalType": "address",
          "name": "operator",
          "type": "address"
        },
        {
          "indexed": false,
          "internalType": "bool",
          "name": "approved",
          "type": "bool"
        }
      ],
      "name": "ApprovalForAll",
      "type": "event"
    },
    {
      "anonymous": false,
      "inputs": [
        {
          "indexed": false,
          "internalType": "address",
          "name": "sender",
          "type": "address"
        },
        {
          "indexed": false,
          "internalType": "uint256",
          "name": "tokenId",
          "type": "uint256"
        }
      ],
      "name": "NewEpicNFTMinted",
      "type": "event"
    },
    {
      "anonymous": false,
      "inputs": [
        {
          "indexed": true,
          "internalType": "address",
          "name": "from",
          "type": "address"
        },
        {
          "indexed": true,
          "internalType": "address",
          "name": "to",
          "type": "address"
        },
        {
          "indexed": true,
          "internalType": "uint256",
          "name": "tokenId",
          "type": "uint256"
        }
      ],
      "name": "Transfer",
      "type": "event"
    },
    {
      "inputs": [
        {
          "internalType": "address",
          "name": "to",
          "type": "address"
        },
        {
          "internalType": "uint256",
          "name": "tokenId",
          "type": "uint256"
        }
      ],
      "name": "approve",
      "outputs": [],
      "stateMutability": "nonpayable",
      "type": "function"
    },
    {
      "inputs": [
        {
          "internalType": "address",
          "name": "owner",
          "type": "address"
        }
      ],
      "name": "balanceOf",
      "outputs": [
        {
          "internalType": "uint256",
          "name": "",
          "type": "uint256"
        }
      ],
      "stateMutability": "view",
      "type": "function"
    },
    {
      "inputs": [
        {
          "internalType": "uint256",
          "name": "tokenId",
          "type": "uint256"
        }
      ],
      "name": "getApproved",
      "outputs": [
        {
          "internalType": "address",
          "name": "",
          "type": "address"
        }
      ],
      "stateMutability": "view",
      "type": "function"
    },
    {
      "inputs": [
        {
          "internalType": "address",
          "name": "owner",
          "type": "address"
        },
        {
          "internalType": "address",
          "name": "operator",
          "type": "address"
        }
      ],
      "name": "isApprovedForAll",
      "outputs": [
        {
          "internalType": "bool",
          "name": "",
          "type": "bool"
        }
      ],
      "stateMutability": "view",
      "type": "function"
    },
    {
      "inputs": [],
      "name": "makeNewNFT",
      "outputs": [],
      "stateMutability": "nonpayable",
      "type": "function"
    },
    {
      "inputs": [],
      "name": "name",
      "outputs": [
        {
          "internalType": "string",
          "name": "",
          "type": "string"
        }
      ],
      "stateMutability": "view",
      "type": "function"
    },
    {
      "inputs": [
        {
          "internalType": "uint256",
          "name": "tokenId",
          "type": "uint256"
        }
      ],
      "name": "ownerOf",
      "outputs": [
        {
          "internalType": "address",
          "name": "",
          "type": "address"
        }
      ],
      "stateMutability": "view",
      "type": "function"
    },
    {
      "inputs": [
        {
          "internalType": "uint256",
          "name": "tokenId",
          "type": "uint256"
        }
      ],
      "name": "pickRandomBackground",
      "outputs": [
        {
          "internalType": "string",
          "name": "",
          "type": "string"
        }
      ],
      "stateMutability": "view",
      "type": "function"
    },
    {
      "inputs": [
        {
          "internalType": "uint256",
          "name": "tokenId",
          "type": "uint256"
        }
      ],
      "name": "pickRandomBelt",
      "outputs": [
        {
          "internalType": "string",
          "name": "",
          "type": "string"
        }
      ],
      "stateMutability": "view",
      "type": "function"
    },
    {
      "inputs": [
        {
          "internalType": "uint256",
          "name": "tokenId",
          "type": "uint256"
        }
      ],
      "name": "pickRandomEars",
      "outputs": [
        {
          "internalType": "string",
          "name": "",
          "type": "string"
        }
      ],
      "stateMutability": "view",
      "type": "function"
    },
    {
      "inputs": [
        {
          "internalType": "uint256",
          "name": "tokenId",
          "type": "uint256"
        }
      ],
      "name": "pickRandomEyes",
      "outputs": [
        {
          "internalType": "string",
          "name": "",
          "type": "string"
        }
      ],
      "stateMutability": "view",
      "type": "function"
    },
    {
      "inputs": [
        {
          "internalType": "uint256",
          "name": "tokenId",
          "type": "uint256"
        }
      ],
      "name": "pickRandomGloves",
      "outputs": [
        {
          "internalType": "string",
          "name": "",
          "type": "string"
        }
      ],
      "stateMutability": "view",
      "type": "function"
    },
    {
      "inputs": [
        {
          "internalType": "uint256",
          "name": "tokenId",
          "type": "uint256"
        }
      ],
      "name": "pickRandomHair",
      "outputs": [
        {
          "internalType": "string",
          "name": "",
          "type": "string"
        }
      ],
      "stateMutability": "view",
      "type": "function"
    },
    {
      "inputs": [
        {
          "internalType": "uint256",
          "name": "tokenId",
          "type": "uint256"
        }
      ],
      "name": "pickRandomMouth",
      "outputs": [
        {
          "internalType": "string",
          "name": "",
          "type": "string"
        }
      ],
      "stateMutability": "view",
      "type": "function"
    },
    {
      "inputs": [
        {
          "internalType": "uint256",
          "name": "tokenId",
          "type": "uint256"
        }
      ],
      "name": "pickRandomNose",
      "outputs": [
        {
          "internalType": "string",
          "name": "",
          "type": "string"
        }
      ],
      "stateMutability": "view",
      "type": "function"
    },
    {
      "inputs": [
        {
          "internalType": "uint256",
          "name": "tokenId",
          "type": "uint256"
        }
      ],
      "name": "pickRandomShorts",
      "outputs": [
        {
          "internalType": "string",
          "name": "",
          "type": "string"
        }
      ],
      "stateMutability": "view",
      "type": "function"
    },
    {
      "inputs": [
        {
          "internalType": "uint256",
          "name": "tokenId",
          "type": "uint256"
        }
      ],
      "name": "pickRandomTatoos",
      "outputs": [
        {
          "internalType": "string",
          "name": "",
          "type": "string"
        }
      ],
      "stateMutability": "view",
      "type": "function"
    },
    {
      "inputs": [
        {
          "internalType": "address",
          "name": "from",
          "type": "address"
        },
        {
          "internalType": "address",
          "name": "to",
          "type": "address"
        },
        {
          "internalType": "uint256",
          "name": "tokenId",
          "type": "uint256"
        }
      ],
      "name": "safeTransferFrom",
      "outputs": [],
      "stateMutability": "nonpayable",
      "type": "function"
    },
    {
      "inputs": [
        {
          "internalType": "address",
          "name": "from",
          "type": "address"
        },
        {
          "internalType": "address",
          "name": "to",
          "type": "address"
        },
        {
          "internalType": "uint256",
          "name": "tokenId",
          "type": "uint256"
        },
        {
          "internalType": "bytes",
          "name": "_data",
          "type": "bytes"
        }
      ],
      "name": "safeTransferFrom",
      "outputs": [],
      "stateMutability": "nonpayable",
      "type": "function"
    },
    {
      "inputs": [
        {
          "internalType": "address",
          "name": "operator",
          "type": "address"
        },
        {
          "internalType": "bool",
          "name": "approved",
          "type": "bool"
        }
      ],
      "name": "setApprovalForAll",
      "outputs": [],
      "stateMutability": "nonpayable",
      "type": "function"
    },
    {
      "inputs": [
        {
          "internalType": "bytes4",
          "name": "interfaceId",
          "type": "bytes4"
        }
      ],
      "name": "supportsInterface",
      "outputs": [
        {
          "internalType": "bool",
          "name": "",
          "type": "bool"
        }
      ],
      "stateMutability": "view",
      "type": "function"
    },
    {
      "inputs": [],
      "name": "symbol",
      "outputs": [
        {
          "internalType": "string",
          "name": "",
          "type": "string"
        }
      ],
      "stateMutability": "view",
      "type": "function"
    },
    {
      "inputs": [
        {
          "internalType": "uint256",
          "name": "tokenId",
          "type": "uint256"
        }
      ],
      "name": "tokenURI",
      "outputs": [
        {
          "internalType": "string",
          "name": "",
          "type": "string"
        }
      ],
      "stateMutability": "view",
      "type": "function"
    },
    {
      "inputs": [
        {
          "internalType": "address",
          "name": "from",
          "type": "address"
        },
        {
          "internalType": "address",
          "name": "to",
          "type": "address"
        },
        {
          "internalType": "uint256",
          "name": "tokenId",
          "type": "uint256"
        }
      ],
      "name": "transferFrom",
      "outputs": [],
      "stateMutability": "nonpayable",
      "type": "function"
    }
  ],
  "bytecode": "0x608060405260405180610160016040528061012e815260200162005a0e61012e9139600890805190602001906200003892919062000b68565b5060405180606001604052806040518060400160405280600681526020017f42495454454e000000000000000000000000000000000000000000000000000081525081526020016040518060400160405280600781526020017f4845414c5448590000000000000000000000000000000000000000000000000081525081526020016040518060400160405280600781526020017f504945524345440000000000000000000000000000000000000000000000000081525081525060099060036200010592919062000bf9565b5060405180604001604052806040518060400160405280600681526020017f4d4f4841574b000000000000000000000000000000000000000000000000000081525081526020016040518060400160405280600481526020017f42414c4400000000000000000000000000000000000000000000000000000000815250815250600a9060026200019792919062000c60565b506040518060e001604052806040518060400160405280600681526020017f42494f4e4943000000000000000000000000000000000000000000000000000081525081526020016040518060400160405280600481526020017f585241590000000000000000000000000000000000000000000000000000000081525081526020016040518060400160405280600781526020017f50554e434845440000000000000000000000000000000000000000000000000081525081526020016040518060400160405280600481526020017f4f50454e0000000000000000000000000000000000000000000000000000000081525081526020016040518060400160405280600581526020017f414c45525400000000000000000000000000000000000000000000000000000081525081526020016040518060400160405280600a81526020017f53554e474c41535345530000000000000000000000000000000000000000000081525081526020016040518060400160405280600581526020017f4c41534552000000000000000000000000000000000000000000000000000000815250815250600b9060076200035092919062000cc7565b5060405180604001604052806040518060400160405280600681526020017f42524f4b454e000000000000000000000000000000000000000000000000000081525081526020016040518060400160405280600681526020017f4e4f524d414c0000000000000000000000000000000000000000000000000000815250815250600c906002620003e292919062000c60565b5060405180604001604052806040518060400160405280600981526020017f434947415252455453000000000000000000000000000000000000000000000081525081526020016040518060400160405280600681526020017f434c4f5345440000000000000000000000000000000000000000000000000000815250815250600d9060026200047492919062000c60565b506040518060a001604052806040518060400160405280600881526020017f42414e444147455300000000000000000000000000000000000000000000000081525081526020016040518060400160405280600381526020017f524544000000000000000000000000000000000000000000000000000000000081525081526020016040518060400160405280600481526020017f424c55450000000000000000000000000000000000000000000000000000000081525081526020016040518060400160405280600481526020017f4e4f4e450000000000000000000000000000000000000000000000000000000081525081526020016040518060400160405280600581526020017f424c41434b000000000000000000000000000000000000000000000000000000815250815250600e906005620005b792919062000d2e565b5060405180608001604052806040518060400160405280600b81526020017f424c41434b2b574849544500000000000000000000000000000000000000000081525081526020016040518060400160405280600c81526020017f424c41434b2b59454c4c4f57000000000000000000000000000000000000000081525081526020016040518060400160405280600581526020017f475245454e00000000000000000000000000000000000000000000000000000081525081526020016040518060400160405280600381526020017f5245440000000000000000000000000000000000000000000000000000000000815250815250600f906004620006bf92919062000d95565b5060405180604001604052806040518060400160405280600381526020017f594553000000000000000000000000000000000000000000000000000000000081525081526020016040518060400160405280600281526020017f4e4f00000000000000000000000000000000000000000000000000000000000081525081525060109060026200075192919062000c60565b506040518060a001604052806040518060400160405280600b81526020017f4d414f52495f524947485400000000000000000000000000000000000000000081525081526020016040518060400160405280600a81526020017f4d414f52495f4c4546540000000000000000000000000000000000000000000081525081526020016040518060400160405280600381526020017f425443000000000000000000000000000000000000000000000000000000000081525081526020016040518060400160405280600381526020017f455448000000000000000000000000000000000000000000000000000000000081525081526020016040518060400160405280600b81526020017f534b554c4c5f524947485400000000000000000000000000000000000000000081525081525060119060056200089492919062000d2e565b5060405180608001604052806040518060400160405280600681526020017f505552504c45000000000000000000000000000000000000000000000000000081525081526020016040518060400160405280600581526020017f475245454e00000000000000000000000000000000000000000000000000000081525081526020016040518060400160405280600481526020017f424c55450000000000000000000000000000000000000000000000000000000081525081526020016040518060400160405280600381526020017f524544000000000000000000000000000000000000000000000000000000000081525081525060129060046200099c92919062000d95565b50348015620009aa57600080fd5b506040518060400160405280601481526020017f44726177416c6c5468655468696e67732e636f6d0000000000000000000000008152506040518060400160405280601081526020017f44726177416c6c5468655468696e677300000000000000000000000000000000815250816000908051906020019062000a2f92919062000b68565b50806001908051906020019062000a4892919062000b68565b50505062000a966040518060400160405280601e81526020017f54686973206973206d79204e465420636f6e74726163742e20576f616821000081525062000a9c60201b62001b7c1760201c565b62000fb6565b62000b3c8160405160240162000ab3919062000eca565b6040516020818303038152906040527f41304fac000000000000000000000000000000000000000000000000000000007bffffffffffffffffffffffffffffffffffffffffffffffffffffffff19166020820180517bffffffffffffffffffffffffffffffffffffffffffffffffffffffff838183161783525050505062000b3f60201b60201c565b50565b60008151905060006a636f6e736f6c652e6c6f679050602083016000808483855afa5050505050565b82805462000b769062000f40565b90600052602060002090601f01602090048101928262000b9a576000855562000be6565b82601f1062000bb557805160ff191683800117855562000be6565b8280016001018555821562000be6579182015b8281111562000be557825182559160200191906001019062000bc8565b5b50905062000bf5919062000dfc565b5090565b82805482825590600052602060002090810192821562000c4d579160200282015b8281111562000c4c57825182908051906020019062000c3b92919062000b68565b509160200191906001019062000c1a565b5b50905062000c5c919062000e1b565b5090565b82805482825590600052602060002090810192821562000cb4579160200282015b8281111562000cb357825182908051906020019062000ca292919062000b68565b509160200191906001019062000c81565b5b50905062000cc3919062000e1b565b5090565b82805482825590600052602060002090810192821562000d1b579160200282015b8281111562000d1a57825182908051906020019062000d0992919062000b68565b509160200191906001019062000ce8565b5b50905062000d2a919062000e1b565b5090565b82805482825590600052602060002090810192821562000d82579160200282015b8281111562000d8157825182908051906020019062000d7092919062000b68565b509160200191906001019062000d4f565b5b50905062000d91919062000e1b565b5090565b82805482825590600052602060002090810192821562000de9579160200282015b8281111562000de857825182908051906020019062000dd792919062000b68565b509160200191906001019062000db6565b5b50905062000df8919062000e1b565b5090565b5b8082111562000e1757600081600090555060010162000dfd565b5090565b5b8082111562000e3f576000818162000e35919062000e43565b5060010162000e1c565b5090565b50805462000e519062000f40565b6000825580601f1062000e65575062000e86565b601f01602090049060005260206000209081019062000e85919062000dfc565b5b50565b600062000e968262000eee565b62000ea2818562000ef9565b935062000eb481856020860162000f0a565b62000ebf8162000fa5565b840191505092915050565b6000602082019050818103600083015262000ee6818462000e89565b905092915050565b600081519050919050565b600082825260208201905092915050565b60005b8381101562000f2a57808201518184015260208101905062000f0d565b8381111562000f3a576000848401525b50505050565b6000600282049050600182168062000f5957607f821691505b6020821081141562000f705762000f6f62000f76565b5b50919050565b7f4e487b7100000000000000000000000000000000000000000000000000000000600052602260045260246000fd5b6000601f19601f8301169050919050565b614a488062000fc66000396000f3fe608060405234801561001057600080fd5b50600436106101585760003560e01c8063697558fa116100c3578063b88d4fde1161007c578063b88d4fde14610423578063c87b56dd1461043f578063c9a4043e1461046f578063cbaf8a361461049f578063ce467edd146104cf578063e985e9c5146104ff57610158565b8063697558fa1461034f57806370a082311461037f57806395d89b41146103af578063a22cb465146103cd578063ad992e6d146103e9578063b4c84ce11461041957610158565b806323b872dd1161011557806323b872dd146102575780633d4cd68b1461027357806342842e0e146102a35780635068d1de146102bf5780635afb523f146102ef5780636352211e1461031f57610158565b806301ffc9a71461015d5780630301cd2d1461018d578063039a6de7146101bd57806306fdde03146101ed578063081812fc1461020b578063095ea7b31461023b575b600080fd5b61017760048036038101906101729190612fc5565b61052f565b60405161018491906142be565b60405180910390f35b6101a760048036038101906101a29190613017565b610611565b6040516101b491906142d9565b60405180910390f35b6101d760048036038101906101d29190613017565b61072f565b6040516101e491906142d9565b60405180910390f35b6101f561084d565b60405161020291906142d9565b60405180910390f35b61022560048036038101906102209190613017565b6108df565b604051610232919061422e565b60405180910390f35b61025560048036038101906102509190612f89565b610964565b005b610271600480360381019061026c9190612e83565b610a7c565b005b61028d60048036038101906102889190613017565b610adc565b60405161029a91906142d9565b60405180910390f35b6102bd60048036038101906102b89190612e83565b610bfa565b005b6102d960048036038101906102d49190613017565b610c1a565b6040516102e691906142d9565b60405180910390f35b61030960048036038101906103049190613017565b610d38565b60405161031691906142d9565b60405180910390f35b61033960048036038101906103349190613017565b610e56565b604051610346919061422e565b60405180910390f35b61036960048036038101906103649190613017565b610f08565b60405161037691906142d9565b60405180910390f35b61039960048036038101906103949190612e1e565b611026565b6040516103a69190614539565b60405180910390f35b6103b76110de565b6040516103c491906142d9565b60405180910390f35b6103e760048036038101906103e29190612f4d565b611170565b005b61040360048036038101906103fe9190613017565b611186565b60405161041091906142d9565b60405180910390f35b6104216112a4565b005b61043d60048036038101906104389190612ed2565b6115da565b005b61045960048036038101906104549190613017565b61163c565b60405161046691906142d9565b60405180910390f35b61048960048036038101906104849190613017565b61178e565b60405161049691906142d9565b60405180910390f35b6104b960048036038101906104b49190613017565b6118ac565b6040516104c691906142d9565b60405180910390f35b6104e960048036038101906104e49190613017565b6119ca565b6040516104f691906142d9565b60405180910390f35b61051960048036038101906105149190612e47565b611ae8565b60405161052691906142be565b60405180910390f35b60007f80ac58cd000000000000000000000000000000000000000000000000000000007bffffffffffffffffffffffffffffffffffffffffffffffffffffffff1916827bffffffffffffffffffffffffffffffffffffffffffffffffffffffff191614806105fa57507f5b5e139f000000000000000000000000000000000000000000000000000000007bffffffffffffffffffffffffffffffffffffffffffffffffffffffff1916827bffffffffffffffffffffffffffffffffffffffffffffffffffffffff1916145b8061060a575061060982611c15565b5b9050919050565b6060600061064561062184611c7f565b60405160200161063191906141ea565b604051602081830303815290604052611e2c565b9050600980549050816106589190614853565b905060098181548110610694577f4e487b7100000000000000000000000000000000000000000000000000000000600052603260045260246000fd5b9060005260206000200180546106a9906147d8565b80601f01602080910402602001604051908101604052809291908181526020018280546106d5906147d8565b80156107225780601f106106f757610100808354040283529160200191610722565b820191906000526020600020905b81548152906001019060200180831161070557829003601f168201915b5050505050915050919050565b6060600061076361073f84611c7f565b60405160200161074f9190613f15565b604051602081830303815290604052611e2c565b9050600b80549050816107769190614853565b9050600b81815481106107b2577f4e487b7100000000000000000000000000000000000000000000000000000000600052603260045260246000fd5b9060005260206000200180546107c7906147d8565b80601f01602080910402602001604051908101604052809291908181526020018280546107f3906147d8565b80156108405780601f1061081557610100808354040283529160200191610840565b820191906000526020600020905b81548152906001019060200180831161082357829003601f168201915b5050505050915050919050565b60606000805461085c906147d8565b80601f0160208091040260200160405190810160405280929190818152602001828054610888906147d8565b80156108d55780601f106108aa576101008083540402835291602001916108d5565b820191906000526020600020905b8154815290600101906020018083116108b857829003601f168201915b5050505050905090565b60006108ea82611e5f565b610929576040517f08c379a000000000000000000000000000000000000000000000000000000000815260040161092090614499565b60405180910390fd5b6004600083815260200190815260200160002060009054906101000a900473ffffffffffffffffffffffffffffffffffffffff169050919050565b600061096f82610e56565b90508073ffffffffffffffffffffffffffffffffffffffff168373ffffffffffffffffffffffffffffffffffffffff1614156109e0576040517f08c379a00000000000000000000000000000000000000000000000000000000081526004016109d7906144f9565b60405180910390fd5b8073ffffffffffffffffffffffffffffffffffffffff166109ff611ecb565b73ffffffffffffffffffffffffffffffffffffffff161480610a2e5750610a2d81610a28611ecb565b611ae8565b5b610a6d576040517f08c379a0000000000000000000000000000000000000000000000000000000008152600401610a64906143d9565b60405180910390fd5b610a778383611ed3565b505050565b610a8d610a87611ecb565b82611f8c565b610acc576040517f08c379a0000000000000000000000000000000000000000000000000000000008152600401610ac390614519565b60405180910390fd5b610ad783838361206a565b505050565b60606000610b10610aec84611c7f565b604051602001610afc9190613f37565b604051602081830303815290604052611e2c565b9050600e8054905081610b239190614853565b9050600e8181548110610b5f577f4e487b7100000000000000000000000000000000000000000000000000000000600052603260045260246000fd5b906000526020600020018054610b74906147d8565b80601f0160208091040260200160405190810160405280929190818152602001828054610ba0906147d8565b8015610bed5780601f10610bc257610100808354040283529160200191610bed565b820191906000526020600020905b815481529060010190602001808311610bd057829003601f168201915b5050505050915050919050565b610c15838383604051806020016040528060008152506115da565b505050565b60606000610c4e610c2a84611c7f565b604051602001610c3a919061420c565b604051602081830303815290604052611e2c565b905060128054905081610c619190614853565b905060128181548110610c9d577f4e487b7100000000000000000000000000000000000000000000000000000000600052603260045260246000fd5b906000526020600020018054610cb2906147d8565b80601f0160208091040260200160405190810160405280929190818152602001828054610cde906147d8565b8015610d2b5780601f10610d0057610100808354040283529160200191610d2b565b820191906000526020600020905b815481529060010190602001808311610d0e57829003601f168201915b5050505050915050919050565b60606000610d6c610d4884611c7f565b604051602001610d589190613ef3565b604051602081830303815290604052611e2c565b9050600d8054905081610d7f9190614853565b9050600d8181548110610dbb577f4e487b7100000000000000000000000000000000000000000000000000000000600052603260045260246000fd5b906000526020600020018054610dd0906147d8565b80601f0160208091040260200160405190810160405280929190818152602001828054610dfc906147d8565b8015610e495780601f10610e1e57610100808354040283529160200191610e49565b820191906000526020600020905b815481529060010190602001808311610e2c57829003601f168201915b5050505050915050919050565b6000806002600084815260200190815260200160002060009054906101000a900473ffffffffffffffffffffffffffffffffffffffff169050600073ffffffffffffffffffffffffffffffffffffffff168173ffffffffffffffffffffffffffffffffffffffff161415610eff576040517f08c379a0000000000000000000000000000000000000000000000000000000008152600401610ef690614419565b60405180910390fd5b80915050919050565b60606000610f3c610f1884611c7f565b604051602001610f2891906140e3565b604051602081830303815290604052611e2c565b9050600f8054905081610f4f9190614853565b9050600f8181548110610f8b577f4e487b7100000000000000000000000000000000000000000000000000000000600052603260045260246000fd5b906000526020600020018054610fa0906147d8565b80601f0160208091040260200160405190810160405280929190818152602001828054610fcc906147d8565b80156110195780601f10610fee57610100808354040283529160200191611019565b820191906000526020600020905b815481529060010190602001808311610ffc57829003601f168201915b5050505050915050919050565b60008073ffffffffffffffffffffffffffffffffffffffff168273ffffffffffffffffffffffffffffffffffffffff161415611097576040517f08c379a000000000000000000000000000000000000000000000000000000000815260040161108e906143f9565b60405180910390fd5b600360008373ffffffffffffffffffffffffffffffffffffffff1673ffffffffffffffffffffffffffffffffffffffff168152602001908152602001600020549050919050565b6060600180546110ed906147d8565b80601f0160208091040260200160405190810160405280929190818152602001828054611119906147d8565b80156111665780601f1061113b57610100808354040283529160200191611166565b820191906000526020600020905b81548152906001019060200180831161114957829003601f168201915b5050505050905090565b61118261117b611ecb565b83836122c6565b5050565b606060006111ba61119684611c7f565b6040516020016111a69190614105565b604051602081830303815290604052611e2c565b9050600c80549050816111cd9190614853565b9050600c8181548110611209577f4e487b7100000000000000000000000000000000000000000000000000000000600052603260045260246000fd5b90600052602060002001805461121e906147d8565b80601f016020809104026020016040519081016040528092919081815260200182805461124a906147d8565b80156112975780601f1061126c57610100808354040283529160200191611297565b820191906000526020600020905b81548152906001019060200180831161127a57829003601f168201915b5050505050915050919050565b60006112b06007612433565b90506112ba612c42565b6112c382610611565b81608001819052506112d4826119ca565b8160a001819052506112e58261072f565b8160c001819052506112f682611186565b8160e0018190525061130782610d38565b81610100018190525061131982610adc565b81610120018190525061132b82610f08565b81610140018190525061133d826118ac565b81610160018190525061134f8261178e565b81610180018190525061136182610c1a565b81606001819052506040518060400160405280600381526020017f524f4f000000000000000000000000000000000000000000000000000000000081525081600001819052506040518060400160405280601581526020017f41206e657720436f6d626174204b616e6761726f6f00000000000000000000008152508160200181905250600081608001518260a001518360c001518460e001518561010001518661012001518761014001518861016001518961018001518a606001516040516020016114379a99989796959493929190613f59565b6040516020818303038152906040529050600060088260405160200161145e929190613ec4565b604051602081830303815290604052905060006114ad8460000151856020015161148785612441565b60405160200161149993929190614149565b604051602081830303815290604052612441565b90506000816040516020016114c291906141a6565b60405160208183030381529060405290506115116040518060400160405280601581526020017f0a2d2d2d2d2d2d2d2d2d2d2d2d2d2d2d2d2d2d2d2d0000000000000000000000815250611b7c565b61151a81611b7c565b6115586040518060400160405280601581526020017f2d2d2d2d2d2d2d2d2d2d2d2d2d2d2d2d2d2d2d2d0a0000000000000000000000815250611b7c565b61156233876125e0565b61156c86826125fe565b6115766007612672565b6115996040518060600160405280602581526020016149ae602591398733612688565b7febb98688741ffa4c7589bf325de30cf7becb63de567842e1ccdb6cb949fdc82c33876040516115ca929190614295565b60405180910390a1505050505050565b6115eb6115e5611ecb565b83611f8c565b61162a576040517f08c379a000000000000000000000000000000000000000000000000000000000815260040161162190614519565b60405180910390fd5b61163684848484612727565b50505050565b606061164782611e5f565b611686576040517f08c379a000000000000000000000000000000000000000000000000000000000815260040161167d90614479565b60405180910390fd5b60006006600084815260200190815260200160002080546116a6906147d8565b80601f01602080910402602001604051908101604052809291908181526020018280546116d2906147d8565b801561171f5780601f106116f45761010080835404028352916020019161171f565b820191906000526020600020905b81548152906001019060200180831161170257829003601f168201915b505050505090506000611730612783565b9050600081511415611746578192505050611789565b60008251111561177b578082604051602001611763929190613ea0565b60405160208183030381529060405292505050611789565b6117848461279a565b925050505b919050565b606060006117c261179e84611c7f565b6040516020016117ae91906140c1565b604051602081830303815290604052611e2c565b9050601180549050816117d59190614853565b905060118181548110611811577f4e487b7100000000000000000000000000000000000000000000000000000000600052603260045260246000fd5b906000526020600020018054611826906147d8565b80601f0160208091040260200160405190810160405280929190818152602001828054611852906147d8565b801561189f5780601f106118745761010080835404028352916020019161189f565b820191906000526020600020905b81548152906001019060200180831161188257829003601f168201915b5050505050915050919050565b606060006118e06118bc84611c7f565b6040516020016118cc91906141c8565b604051602081830303815290604052611e2c565b9050601080549050816118f39190614853565b90506010818154811061192f577f4e487b7100000000000000000000000000000000000000000000000000000000600052603260045260246000fd5b906000526020600020018054611944906147d8565b80601f0160208091040260200160405190810160405280929190818152602001828054611970906147d8565b80156119bd5780601f10611992576101008083540402835291602001916119bd565b820191906000526020600020905b8154815290600101906020018083116119a057829003601f168201915b5050505050915050919050565b606060006119fe6119da84611c7f565b6040516020016119ea9190614127565b604051602081830303815290604052611e2c565b9050600a8054905081611a119190614853565b9050600a8181548110611a4d577f4e487b7100000000000000000000000000000000000000000000000000000000600052603260045260246000fd5b906000526020600020018054611a62906147d8565b80601f0160208091040260200160405190810160405280929190818152602001828054611a8e906147d8565b8015611adb5780601f10611ab057610100808354040283529160200191611adb565b820191906000526020600020905b815481529060010190602001808311611abe57829003601f168201915b5050505050915050919050565b6000600560008473ffffffffffffffffffffffffffffffffffffffff1673ffffffffffffffffffffffffffffffffffffffff16815260200190815260200160002060008373ffffffffffffffffffffffffffffffffffffffff1673ffffffffffffffffffffffffffffffffffffffff16815260200190815260200160002060009054906101000a900460ff16905092915050565b611c1281604051602401611b9091906142d9565b6040516020818303038152906040527f41304fac000000000000000000000000000000000000000000000000000000007bffffffffffffffffffffffffffffffffffffffffffffffffffffffff19166020820180517bffffffffffffffffffffffffffffffffffffffffffffffffffffffff8381831617835250505050612841565b50565b60007f01ffc9a7000000000000000000000000000000000000000000000000000000007bffffffffffffffffffffffffffffffffffffffffffffffffffffffff1916827bffffffffffffffffffffffffffffffffffffffffffffffffffffffff1916149050919050565b60606000821415611cc7576040518060400160405280600181526020017f30000000000000000000000000000000000000000000000000000000000000008152509050611e27565b600082905060005b60008214611cf9578080611ce29061480a565b915050600a82611cf29190614663565b9150611ccf565b60008167ffffffffffffffff811115611d3b577f4e487b7100000000000000000000000000000000000000000000000000000000600052604160045260246000fd5b6040519080825280601f01601f191660200182016040528015611d6d5781602001600182028036833780820191505090505b5090505b60008514611e2057600182611d8691906146ee565b9150600a85611d959190614853565b6030611da1919061460d565b60f81b818381518110611ddd577f4e487b7100000000000000000000000000000000000000000000000000000000600052603260045260246000fd5b60200101907effffffffffffffffffffffffffffffffffffffffffffffffffffffffffffff1916908160001a905350600a85611e199190614663565b9450611d71565b8093505050505b919050565b600081604051602001611e3f9190613e89565b6040516020818303038152906040528051906020012060001c9050919050565b60008073ffffffffffffffffffffffffffffffffffffffff166002600084815260200190815260200160002060009054906101000a900473ffffffffffffffffffffffffffffffffffffffff1673ffffffffffffffffffffffffffffffffffffffff1614159050919050565b600033905090565b816004600083815260200190815260200160002060006101000a81548173ffffffffffffffffffffffffffffffffffffffff021916908373ffffffffffffffffffffffffffffffffffffffff160217905550808273ffffffffffffffffffffffffffffffffffffffff16611f4683610e56565b73ffffffffffffffffffffffffffffffffffffffff167f8c5be1e5ebec7d5bd14f71427d1e84f3dd0314c0f7b2291e5b200ac8c7c3b92560405160405180910390a45050565b6000611f9782611e5f565b611fd6576040517f08c379a0000000000000000000000000000000000000000000000000000000008152600401611fcd906143b9565b60405180910390fd5b6000611fe183610e56565b90508073ffffffffffffffffffffffffffffffffffffffff168473ffffffffffffffffffffffffffffffffffffffff16148061205057508373ffffffffffffffffffffffffffffffffffffffff16612038846108df565b73ffffffffffffffffffffffffffffffffffffffff16145b8061206157506120608185611ae8565b5b91505092915050565b8273ffffffffffffffffffffffffffffffffffffffff1661208a82610e56565b73ffffffffffffffffffffffffffffffffffffffff16146120e0576040517f08c379a00000000000000000000000000000000000000000000000000000000081526004016120d7906144b9565b60405180910390fd5b600073ffffffffffffffffffffffffffffffffffffffff168273ffffffffffffffffffffffffffffffffffffffff161415612150576040517f08c379a000000000000000000000000000000000000000000000000000000000815260040161214790614379565b60405180910390fd5b61215b83838361286a565b612166600082611ed3565b6001600360008573ffffffffffffffffffffffffffffffffffffffff1673ffffffffffffffffffffffffffffffffffffffff16815260200190815260200160002060008282546121b691906146ee565b925050819055506001600360008473ffffffffffffffffffffffffffffffffffffffff1673ffffffffffffffffffffffffffffffffffffffff168152602001908152602001600020600082825461220d919061460d565b92505081905550816002600083815260200190815260200160002060006101000a81548173ffffffffffffffffffffffffffffffffffffffff021916908373ffffffffffffffffffffffffffffffffffffffff160217905550808273ffffffffffffffffffffffffffffffffffffffff168473ffffffffffffffffffffffffffffffffffffffff167fddf252ad1be2c89b69c2b068fc378daa952ba7f163c4a11628f55a4df523b3ef60405160405180910390a4505050565b8173ffffffffffffffffffffffffffffffffffffffff168373ffffffffffffffffffffffffffffffffffffffff161415612335576040517f08c379a000000000000000000000000000000000000000000000000000000000815260040161232c90614399565b60405180910390fd5b80600560008573ffffffffffffffffffffffffffffffffffffffff1673ffffffffffffffffffffffffffffffffffffffff16815260200190815260200160002060008473ffffffffffffffffffffffffffffffffffffffff1673ffffffffffffffffffffffffffffffffffffffff16815260200190815260200160002060006101000a81548160ff0219169083151502179055508173ffffffffffffffffffffffffffffffffffffffff168373ffffffffffffffffffffffffffffffffffffffff167f17307eab39ab6107e8899845ad3d59bd9653f200f220920489ca2b5937696c318360405161242691906142be565b60405180910390a3505050565b600081600001549050919050565b6060600082511415612464576040518060200160405280600081525090506125db565b60006040518060600160405280604081526020016149d36040913990506000600360028551612493919061460d565b61249d9190614663565b60046124a99190614694565b905060006020826124ba919061460d565b67ffffffffffffffff8111156124f9577f4e487b7100000000000000000000000000000000000000000000000000000000600052604160045260246000fd5b6040519080825280601f01601f19166020018201604052801561252b5781602001600182028036833780820191505090505b509050818152600183018586518101602084015b8183101561259a576003830192508251603f8160121c168501518253600182019150603f81600c1c168501518253600182019150603f8160061c168501518253600182019150603f811685015182536001820191505061253f565b6003895106600181146125b457600281146125c4576125cf565b613d3d60f01b60028303526125cf565b603d60f81b60018303525b50505050508093505050505b919050565b6125fa82826040518060200160405280600081525061286f565b5050565b61260782611e5f565b612646576040517f08c379a000000000000000000000000000000000000000000000000000000000815260040161263d90614439565b60405180910390fd5b8060066000848152602001908152602001600020908051906020019061266d929190612caa565b505050565b6001816000016000828254019250508190555050565b6127228383836040516024016126a0939291906142fb565b6040516020818303038152906040527fe3849f79000000000000000000000000000000000000000000000000000000007bffffffffffffffffffffffffffffffffffffffffffffffffffffffff19166020820180517bffffffffffffffffffffffffffffffffffffffffffffffffffffffff8381831617835250505050612841565b505050565b61273284848461206a565b61273e848484846128ca565b61277d576040517f08c379a000000000000000000000000000000000000000000000000000000000815260040161277490614339565b60405180910390fd5b50505050565b606060405180602001604052806000815250905090565b60606127a582611e5f565b6127e4576040517f08c379a00000000000000000000000000000000000000000000000000000000081526004016127db906144d9565b60405180910390fd5b60006127ee612783565b9050600081511161280e5760405180602001604052806000815250612839565b8061281884611c7f565b604051602001612829929190613ea0565b6040516020818303038152906040525b915050919050565b60008151905060006a636f6e736f6c652e6c6f679050602083016000808483855afa5050505050565b505050565b6128798383612a61565b61288660008484846128ca565b6128c5576040517f08c379a00000000000000000000000000000000000000000000000000000000081526004016128bc90614339565b60405180910390fd5b505050565b60006128eb8473ffffffffffffffffffffffffffffffffffffffff16612c2f565b15612a54578373ffffffffffffffffffffffffffffffffffffffff1663150b7a02612914611ecb565b8786866040518563ffffffff1660e01b81526004016129369493929190614249565b602060405180830381600087803b15801561295057600080fd5b505af192505050801561298157506040513d601f19601f8201168201806040525081019061297e9190612fee565b60015b612a04573d80600081146129b1576040519150601f19603f3d011682016040523d82523d6000602084013e6129b6565b606091505b506000815114156129fc576040517f08c379a00000000000000000000000000000000000000000000000000000000081526004016129f390614339565b60405180910390fd5b805181602001fd5b63150b7a0260e01b7bffffffffffffffffffffffffffffffffffffffffffffffffffffffff1916817bffffffffffffffffffffffffffffffffffffffffffffffffffffffff191614915050612a59565b600190505b949350505050565b600073ffffffffffffffffffffffffffffffffffffffff168273ffffffffffffffffffffffffffffffffffffffff161415612ad1576040517f08c379a0000000000000000000000000000000000000000000000000000000008152600401612ac890614459565b60405180910390fd5b612ada81611e5f565b15612b1a576040517f08c379a0000000000000000000000000000000000000000000000000000000008152600401612b1190614359565b60405180910390fd5b612b266000838361286a565b6001600360008473ffffffffffffffffffffffffffffffffffffffff1673ffffffffffffffffffffffffffffffffffffffff1681526020019081526020016000206000828254612b76919061460d565b92505081905550816002600083815260200190815260200160002060006101000a81548173ffffffffffffffffffffffffffffffffffffffff021916908373ffffffffffffffffffffffffffffffffffffffff160217905550808273ffffffffffffffffffffffffffffffffffffffff16600073ffffffffffffffffffffffffffffffffffffffff167fddf252ad1be2c89b69c2b068fc378daa952ba7f163c4a11628f55a4df523b3ef60405160405180910390a45050565b600080823b905060008111915050919050565b604051806101a00160405280606081526020016060815260200160608152602001606081526020016060815260200160608152602001606081526020016060815260200160608152602001606081526020016060815260200160608152602001606081525090565b828054612cb6906147d8565b90600052602060002090601f016020900481019282612cd85760008555612d1f565b82601f10612cf157805160ff1916838001178555612d1f565b82800160010185558215612d1f579182015b82811115612d1e578251825591602001919060010190612d03565b5b509050612d2c9190612d30565b5090565b5b80821115612d49576000816000905550600101612d31565b5090565b6000612d60612d5b84614585565b614554565b905082815260208101848484011115612d7857600080fd5b612d83848285614796565b509392505050565b600081359050612d9a81614951565b92915050565b600081359050612daf81614968565b92915050565b600081359050612dc48161497f565b92915050565b600081519050612dd98161497f565b92915050565b600082601f830112612df057600080fd5b8135612e00848260208601612d4d565b91505092915050565b600081359050612e1881614996565b92915050565b600060208284031215612e3057600080fd5b6000612e3e84828501612d8b565b91505092915050565b60008060408385031215612e5a57600080fd5b6000612e6885828601612d8b565b9250506020612e7985828601612d8b565b9150509250929050565b600080600060608486031215612e9857600080fd5b6000612ea686828701612d8b565b9350506020612eb786828701612d8b565b9250506040612ec886828701612e09565b9150509250925092565b60008060008060808587031215612ee857600080fd5b6000612ef687828801612d8b565b9450506020612f0787828801612d8b565b9350506040612f1887828801612e09565b925050606085013567ffffffffffffffff811115612f3557600080fd5b612f4187828801612ddf565b91505092959194509250565b60008060408385031215612f6057600080fd5b6000612f6e85828601612d8b565b9250506020612f7f85828601612da0565b9150509250929050565b60008060408385031215612f9c57600080fd5b6000612faa85828601612d8b565b9250506020612fbb85828601612e09565b9150509250929050565b600060208284031215612fd757600080fd5b6000612fe584828501612db5565b91505092915050565b60006020828403121561300057600080fd5b600061300e84828501612dca565b91505092915050565b60006020828403121561302957600080fd5b600061303784828501612e09565b91505092915050565b61304981614722565b82525050565b61305881614734565b82525050565b6000613069826145ca565b61307381856145e0565b93506130838185602086016147a5565b61308c81614940565b840191505092915050565b60006130a2826145d5565b6130ac81856145f1565b93506130bc8185602086016147a5565b6130c581614940565b840191505092915050565b60006130db826145d5565b6130e58185614602565b93506130f58185602086016147a5565b80840191505092915050565b6000815461310e816147d8565b6131188186614602565b94506001821660008114613133576001811461314457613177565b60ff19831686528186019350613177565b61314d856145b5565b60005b8381101561316f57815481890152600182019150602081019050613150565b838801955050505b50505092915050565b600061318d601283614602565b91507f222c226465736372697074696f6e223a202200000000000000000000000000006000830152601282019050919050565b60006131cd601d83614602565b91507f3c747370616e20783d27353025272064793d273135273e6e6f73653a200000006000830152601d82019050919050565b600061320d600583614602565b91507f4d4f5554480000000000000000000000000000000000000000000000000000006000830152600582019050919050565b600061324d600483614602565b91507f45594553000000000000000000000000000000000000000000000000000000006000830152600482019050919050565b600061328d6032836145f1565b91507f4552433732313a207472616e7366657220746f206e6f6e20455243373231526560008301527f63656976657220696d706c656d656e74657200000000000000000000000000006020830152604082019050919050565b60006132f3601c836145f1565b91507f4552433732313a20746f6b656e20616c7265616479206d696e746564000000006000830152602082019050919050565b6000613333600883614602565b91507f3c2f747370616e3e0000000000000000000000000000000000000000000000006000830152600882019050919050565b6000613373601f83614602565b91507f3c747370616e20783d27353025272064793d273135273e73686f7274733a20006000830152601f82019050919050565b60006133b36024836145f1565b91507f4552433732313a207472616e7366657220746f20746865207a65726f2061646460008301527f72657373000000000000000000000000000000000000000000000000000000006020830152604082019050919050565b60006134196019836145f1565b91507f4552433732313a20617070726f766520746f2063616c6c6572000000000000006000830152602082019050919050565b6000613459600683614602565b91507f474c4f56455300000000000000000000000000000000000000000000000000006000830152600682019050919050565b6000613499601d83614602565b91507f3c747370616e20783d27353025272064793d273135273e657965733a200000006000830152601d82019050919050565b60006134d9601d83614602565b91507f3c747370616e20783d27353025272064793d273135273e656172733a200000006000830152601d82019050919050565b6000613519602383614602565b91507f3c747370616e20783d27353025272064793d273135273e6261636b67726f756e60008301527f643a2000000000000000000000000000000000000000000000000000000000006020830152602382019050919050565b600061357f602c836145f1565b91507f4552433732313a206f70657261746f7220717565727920666f72206e6f6e657860008301527f697374656e7420746f6b656e00000000000000000000000000000000000000006020830152604082019050919050565b60006135e5600d83614602565b91507f3c2f746578743e3c2f7376673e000000000000000000000000000000000000006000830152600d82019050919050565b6000613625600683614602565b91507f5441544f4f5300000000000000000000000000000000000000000000000000006000830152600682019050919050565b60006136656038836145f1565b91507f4552433732313a20617070726f76652063616c6c6572206973206e6f74206f7760008301527f6e6572206e6f7220617070726f76656420666f7220616c6c00000000000000006020830152604082019050919050565b60006136cb602a836145f1565b91507f4552433732313a2062616c616e636520717565727920666f7220746865207a6560008301527f726f2061646472657373000000000000000000000000000000000000000000006020830152604082019050919050565b60006137316029836145f1565b91507f4552433732313a206f776e657220717565727920666f72206e6f6e657869737460008301527f656e7420746f6b656e00000000000000000000000000000000000000000000006020830152604082019050919050565b6000613797602e836145f1565b91507f45524337323155524953746f726167653a2055524920736574206f66206e6f6e60008301527f6578697374656e7420746f6b656e0000000000000000000000000000000000006020830152604082019050919050565b60006137fd600283614602565b91507f227d0000000000000000000000000000000000000000000000000000000000006000830152600282019050919050565b600061383d6020836145f1565b91507f4552433732313a206d696e7420746f20746865207a65726f20616464726573736000830152602082019050919050565b600061387d6031836145f1565b91507f45524337323155524953746f726167653a2055524920717565727920666f722060008301527f6e6f6e6578697374656e7420746f6b656e0000000000000000000000000000006020830152604082019050919050565b60006138e3601f83614602565b91507f3c747370616e20783d27353025272064793d273135273e7461746f6f733a20006000830152601f82019050919050565b6000613923602c836145f1565b91507f4552433732313a20617070726f76656420717565727920666f72206e6f6e657860008301527f697374656e7420746f6b656e00000000000000000000000000000000000000006020830152604082019050919050565b6000613989600683614602565b91507f53484f52545300000000000000000000000000000000000000000000000000006000830152600682019050919050565b60006139c9600483614602565b91507f4e4f5345000000000000000000000000000000000000000000000000000000006000830152600482019050919050565b6000613a096029836145f1565b91507f4552433732313a207472616e73666572206f6620746f6b656e2074686174206960008301527f73206e6f74206f776e00000000000000000000000000000000000000000000006020830152604082019050919050565b6000613a6f602f836145f1565b91507f4552433732314d657461646174613a2055524920717565727920666f72206e6f60008301527f6e6578697374656e7420746f6b656e00000000000000000000000000000000006020830152604082019050919050565b6000613ad5600483614602565b91507f48414952000000000000000000000000000000000000000000000000000000006000830152600482019050919050565b6000613b15602783614602565b91507f222c2022696d616765223a2022646174613a696d6167652f7376672b786d6c3b60008301527f6261736536342c000000000000000000000000000000000000000000000000006020830152602782019050919050565b6000613b7b600a83614602565b91507f7b226e616d65223a2022000000000000000000000000000000000000000000006000830152600a82019050919050565b6000613bbb601f83614602565b91507f3c747370616e20783d27353025272064793d273135273e676c6f7665733a20006000830152601f82019050919050565b6000613bfb6021836145f1565b91507f4552433732313a20617070726f76616c20746f2063757272656e74206f776e6560008301527f72000000000000000000000000000000000000000000000000000000000000006020830152604082019050919050565b6000613c61601d83614602565b91507f646174613a6170706c69636174696f6e2f6a736f6e3b6261736536342c0000006000830152601d82019050919050565b6000613ca1601d83614602565b91507f3c747370616e20783d27353025272064793d273135273e686169723a200000006000830152601d82019050919050565b6000613ce16031836145f1565b91507f4552433732313a207472616e736665722063616c6c6572206973206e6f74206f60008301527f776e6572206e6f7220617070726f7665640000000000000000000000000000006020830152604082019050919050565b6000613d47601e83614602565b91507f3c747370616e20783d27353025272064793d273135273e6d6f7574683a2000006000830152601e82019050919050565b6000613d87601d83614602565b91507f3c747370616e20783d27353025272064793d273135273e62656c743a200000006000830152601d82019050919050565b6000613dc7600483614602565b91507f42454c54000000000000000000000000000000000000000000000000000000006000830152600482019050919050565b6000613e07600483614602565b91507f45415253000000000000000000000000000000000000000000000000000000006000830152600482019050919050565b6000613e47600a83614602565b91507f4241434b47524f554e44000000000000000000000000000000000000000000006000830152600a82019050919050565b613e838161478c565b82525050565b6000613e9582846130d0565b915081905092915050565b6000613eac82856130d0565b9150613eb882846130d0565b91508190509392505050565b6000613ed08285613101565b9150613edc82846130d0565b9150613ee7826135d8565b91508190509392505050565b6000613efe82613200565b9150613f0a82846130d0565b915081905092915050565b6000613f2082613240565b9150613f2c82846130d0565b915081905092915050565b6000613f428261344c565b9150613f4e82846130d0565b915081905092915050565b6000613f64826134cc565b9150613f70828d6130d0565b9150613f7b82613326565b9150613f8682613c94565b9150613f92828c6130d0565b9150613f9d82613326565b9150613fa88261348c565b9150613fb4828b6130d0565b9150613fbf82613326565b9150613fca826131c0565b9150613fd6828a6130d0565b9150613fe182613326565b9150613fec82613d3a565b9150613ff882896130d0565b915061400382613326565b915061400e82613bae565b915061401a82886130d0565b915061402582613326565b915061403082613366565b915061403c82876130d0565b915061404782613326565b915061405282613d7a565b915061405e82866130d0565b915061406982613326565b9150614074826138d6565b915061408082856130d0565b915061408b82613326565b91506140968261350c565b91506140a282846130d0565b91506140ad82613326565b91508190509b9a5050505050505050505050565b60006140cc82613618565b91506140d882846130d0565b915081905092915050565b60006140ee8261397c565b91506140fa82846130d0565b915081905092915050565b6000614110826139bc565b915061411c82846130d0565b915081905092915050565b600061413282613ac8565b915061413e82846130d0565b915081905092915050565b600061415482613b6e565b915061416082866130d0565b915061416b82613180565b915061417782856130d0565b915061418282613b08565b915061418e82846130d0565b9150614199826137f0565b9150819050949350505050565b60006141b182613c54565b91506141bd82846130d0565b915081905092915050565b60006141d382613dba565b91506141df82846130d0565b915081905092915050565b60006141f582613dfa565b915061420182846130d0565b915081905092915050565b600061421782613e3a565b915061422382846130d0565b915081905092915050565b60006020820190506142436000830184613040565b92915050565b600060808201905061425e6000830187613040565b61426b6020830186613040565b6142786040830185613e7a565b818103606083015261428a818461305e565b905095945050505050565b60006040820190506142aa6000830185613040565b6142b76020830184613e7a565b9392505050565b60006020820190506142d3600083018461304f565b92915050565b600060208201905081810360008301526142f38184613097565b905092915050565b600060608201905081810360008301526143158186613097565b90506143246020830185613e7a565b6143316040830184613040565b949350505050565b6000602082019050818103600083015261435281613280565b9050919050565b60006020820190508181036000830152614372816132e6565b9050919050565b60006020820190508181036000830152614392816133a6565b9050919050565b600060208201905081810360008301526143b28161340c565b9050919050565b600060208201905081810360008301526143d281613572565b9050919050565b600060208201905081810360008301526143f281613658565b9050919050565b60006020820190508181036000830152614412816136be565b9050919050565b6000602082019050818103600083015261443281613724565b9050919050565b600060208201905081810360008301526144528161378a565b9050919050565b6000602082019050818103600083015261447281613830565b9050919050565b6000602082019050818103600083015261449281613870565b9050919050565b600060208201905081810360008301526144b281613916565b9050919050565b600060208201905081810360008301526144d2816139fc565b9050919050565b600060208201905081810360008301526144f281613a62565b9050919050565b6000602082019050818103600083015261451281613bee565b9050919050565b6000602082019050818103600083015261453281613cd4565b9050919050565b600060208201905061454e6000830184613e7a565b92915050565b6000604051905081810181811067ffffffffffffffff8211171561457b5761457a614911565b5b8060405250919050565b600067ffffffffffffffff8211156145a05761459f614911565b5b601f19601f8301169050602081019050919050565b60008190508160005260206000209050919050565b600081519050919050565b600081519050919050565b600082825260208201905092915050565b600082825260208201905092915050565b600081905092915050565b60006146188261478c565b91506146238361478c565b9250827fffffffffffffffffffffffffffffffffffffffffffffffffffffffffffffffff0382111561465857614657614884565b5b828201905092915050565b600061466e8261478c565b91506146798361478c565b925082614689576146886148b3565b5b828204905092915050565b600061469f8261478c565b91506146aa8361478c565b9250817fffffffffffffffffffffffffffffffffffffffffffffffffffffffffffffffff04831182151516156146e3576146e2614884565b5b828202905092915050565b60006146f98261478c565b91506147048361478c565b92508282101561471757614716614884565b5b828203905092915050565b600061472d8261476c565b9050919050565b60008115159050919050565b60007fffffffff0000000000000000000000000000000000000000000000000000000082169050919050565b600073ffffffffffffffffffffffffffffffffffffffff82169050919050565b6000819050919050565b82818337600083830152505050565b60005b838110156147c35780820151818401526020810190506147a8565b838111156147d2576000848401525b50505050565b600060028204905060018216806147f057607f821691505b60208210811415614804576148036148e2565b5b50919050565b60006148158261478c565b91507fffffffffffffffffffffffffffffffffffffffffffffffffffffffffffffffff82141561484857614847614884565b5b600182019050919050565b600061485e8261478c565b91506148698361478c565b925082614879576148786148b3565b5b828206905092915050565b7f4e487b7100000000000000000000000000000000000000000000000000000000600052601160045260246000fd5b7f4e487b7100000000000000000000000000000000000000000000000000000000600052601260045260246000fd5b7f4e487b7100000000000000000000000000000000000000000000000000000000600052602260045260246000fd5b7f4e487b7100000000000000000000000000000000000000000000000000000000600052604160045260246000fd5b6000601f19601f8301169050919050565b61495a81614722565b811461496557600080fd5b50565b61497181614734565b811461497c57600080fd5b50565b61498881614740565b811461499357600080fd5b50565b61499f8161478c565b81146149aa57600080fd5b5056fe416e204e465420772f20494420257320686173206265656e206d696e74656420746f2025734142434445464748494a4b4c4d4e4f505152535455565758595a6162636465666768696a6b6c6d6e6f707172737475767778797a303132333435363738392b2fa2646970667358221220a8ce22caf55f147511b6f2c0665028d2dd6b9bd838155be030aaf7d7fa80d1e364736f6c634300080000333c73766720786d6c6e733d27687474703a2f2f7777772e77332e6f72672f323030302f73766727207072657365727665417370656374526174696f3d27784d696e594d696e206d656574272076696577426f783d273020302033333320333333273e3c7374796c653e2e62617365207b2066696c6c3a2077686974653b20666f6e742d66616d696c793a2073657269663b20666f6e742d73697a653a20313270783b207d3c2f7374796c653e3c726563742077696474683d273130302527206865696768743d2731303025272066696c6c3d27626c61636b27202f3e3c7465787420783d273530252720793d2730252720636c6173733d27626173652720646f6d696e616e742d626173656c696e653d276d6964646c652720746578742d616e63686f723d276d6964646c65273e",
  "linkReferences": {},
  "deployedLinkReferences": {}
}